:0D0D3B00E4F5C7F5C5F5C675C380F5C42203
:1000260075C78375C5018FC4EEFF8FC375C65A7534
:08003600C6A500AFC2120D3B8C
:01003E00229F
:1000030075C78375C5028FC4EEFF8FC38DC275C6D6
:080013005A75C6A500020D3B61
:1000460075C78375C5038FC4EEFF8FC375C65A7512
:06005600C6A500020D3BEF
:0D040F000213000001100001120001110095
:0A0D48007E6C7D91DDFEDEFCDFF61F
:010D5200227E
:03003F00C28F224B
:03001B00020AA036
:100AA000C0E0C0F0C083C082C0D075D008C28F053E
:100AB00014E514AE137002051314FFE4FCFDFB7A79
:100AC00096F9F8C3120709500E751300751400E566
:100AD00010940040021510E515D394004011200237
:100AE0000E0516E516D3948C4005751600D202E566
:100AF00017D39400401120050E0518E518D3948CE7
:100B00004005751800D205D0D0D082D083D0F0D067
:020B1000E032D1
:03002300020C804C
:100C8000C0E0C083C082C0D075D008309904C2993A
:100C9000C20030981DC298751600E515C394A05087
:100CA00011AF15051574002FF582E43400F583E5C6
:0B0CB00099F0D0D0D082D083D0E03289
:03004300020C3F6D
:100C3F00C0E0C083C082C0D075D008E59A30E1050E
:100C4F00539AFDC203E59A30E01E539AFE751800C1
:100C5F00E517C394A05011AF17051774A02FF58295
:100C6F00E43400F583E59BF0D0D0D082D083D0E080
:010C7F003242
:0300630002001E7A
:04001E0053EFFE326C
:100A2800E4F537F538F592F59112003F120D07D22B
:100A3800AC120D1B75AF01D2ABD2AFE4FFFE1200B2
:100A4800268F19C2B23002227F01120D487B017A2B
:100A5800007900AD15120066AD077B017A007900B8
:100A6800120CBBE4F515F516C202E510701120044E
:100A780004C296800075100A120D2DD204D2963049
:100A880005C37B017A0079A0AD1712071FE4F5179B
:080A9800F518C205C20480AD8F
:10041C000B4900000000000000000000000119035F
:02042C00C10607
:060066008B398A3A893B48
:10006C00E4F53CF53D1206A164AF600302040C906C
:10007C0000011206BA644C600302040C90000212D8
:10008C0006BA64ED600302040C9000031206BA6415
:10009C00F8600302040C9000041206BA6519600D96
:1000AC009000051206BA6404600302040C120B8162
:1000BC00EF600302040CAB39AA3AA93B900005127D
:1000CC0006BA24FE700302018B14700302018E1415
:1000DC00700302020914700302022224FE70030250
:1000EC00029C2406600302040C9000061206BA60FF
:1000FC000302040C9000071206BA600302040C9071
:10010C0000081206BA600302040C90000574021277
:10011C0006E7900006E41206E7900007740B12063F
:10012C00E7900008E41206E7900009E41206E79055
:10013C00000AE41206E790000B740A1206E790001E
:10014C000CE41206E790000D74061206E790000E00
:10015C00E41206E790000F74021206E79000107488
:10016C00211206E790001174041206E7900012E4C5
:10017C001206E7900013E41206E77D140204097FCF
:10018C00F222AB39AA3AA93B9000061206BA6003D8
:10019C0002040C9000071206BA6401600302040CFE
:1001AC009000081206BA600302040C9000091206B3
:1001BC00BAF519FDE4FFFE120003AB39AA3AA93BCC
:1001CC0090000574041206E7900006E41206E7900E
:1001DC00000774021206E7900008E41206E7E4FF39
:1001EC00FE120026AB39AA3AA93B900009EF120681
:1001FC00E790000AE41206E77D0B020409AB39AA6A
:10020C003AA93B9000041206BAFF6403600302048F
:10021C000C8F197FF422AB39AA3AA93B9000061235
:10022C0006BA600302040CE9240BF9E43AFAC003A1
:10023C00C002C001E53B2418F9E4353A8B42F54382
:10024C008944AA3AA93B9000161206BAF545D0018A
:10025C00D002D0037D33120832AB39AA3AA93B90B5
:10026C00000574061206E7900006E41206E79000FB
:10027C000774021206E7900008E41206E7900009E2
:10028C00E41206E790000AE41206E77D0B0204096B
:10029C00AB39AA3AA93B9000061206BA60030204D5
:1002AC000C9000071206BA600302040C90000812AE
:1002BC0006BA600302040C90000574081206E7905D
:1002CC000006E41206E7AB39AA3AA93B90000720D6
:1002DC00064774071206E7900008E41206E7900040
:1002EC000974011206E790000AE41206E790000B6D
:1002FC0074011206E790000C74011206E790000DD1
:10030C0074011206E790000EE41206E790000F74D9
:10031C00011206E77D10020409741B1206E7900017
:10032C0008E41206E7900009E41206E790000AE4DC
:10033C001206E790000B74011206E790000C740192
:10034C001206E790000D74011206E790000E74017E
:10035C001206E790000F74011206E7900010740269
:10036C001206E7900011E41206E7900012743112A5
:10037C0006E790001374381206E7900014743212DA
:10038C0006E790001574371206E7900016743312C6
:10039C0006E790001774301206E7900018743612B6
:1003AC0006E790001974311206E790001A743612A1
:1003BC0006E790001B74361206E790001C74361288
:1003CC0006E790001D74051206E790001EE4120665
:1003DC00E790001F74681206E790002074651206FF
:1003EC00E7900021746C1206E7900022746C1206E0
:1003FC00E7900023746F1206E7C2067D24020BEB14
:02040C007F006F
:01040E0022CB
:080BEB008B3E8A3F89408D41D9
:100BF300E4FFF542F543EFC39541501AAB3EAA3FDC
:100C0300A9408F827583001206BA2543F543E43564
:100C130042F5420F80E0AB3EAA3FA9408541827571
:100C23008300E5431206E7E542FFE541F58275835C
:0B0C330000A3EF1206E7E5412402FFDA
:010C3E002293
:060B81008B3E8A3F894013
:100B8700E4FFF541F542ED24FEFEEFC39E501AAB9C
:100B97003EAA3FA9408F827583001206BA2542F507
:100BA70042E43541F5410F80DDED7E0024FFF582FB
:100BB700EE34FFF583AB3EAA3FA9401206BAFE7C8E
:100BC7000074FE2DF582EC34FFF5831206BA24007B
:100BD700FFEC3EFEC3E5429FFFE5419E4F7002FFDB
:030BE700227FFF6B
:010BEA0022E8
:10042E00C100C102C10101150001160060A000004B
:10043E0000000000000000000000000000000000AE
:10044E00000000000000000000000000000000009E
:10045E00000000000000000000000000000000008E
:10046E00000000000000000000000000000000007E
:10047E00000000000000000000000000000000006E
:10048E00000000000000000000000000000000005E
:10049E00000000000000000000000000000000004E
:1004AE00000000000000000000000000000000003E
:1004BE00000000000000000000000000000000002E
:1004CE00000000000000000000000000000000001E
:100D0700E4F5A2759850758BE0758DFED28E438EF3
:040D170040C20022B4
:060CBB008B3D8A3E893FDB
:100CC100E4FFEFC39D50182000FDD200AB3DAA3ECA
:0F0CD100A93F8F827583001206BAF5990F80E351
:010CE00022F1
:1004DE00C103C105C10401170001180060A000A0EE
:1004EE0000000000000000000000000000000000FE
:1004FE0000000000000000000000000000000000EE
:10050E0000000000000000000000000000000000DD
:10051E0000000000000000000000000000000000CD
:10052E0000000000000000000000000000000000BD
:10053E0000000000000000000000000000000000AD
:10054E00000000000000000000000000000000009D
:10055E00000000000000000000000000000000008D
:10056E00000000000000000000000000000000007D
:10057E00000000000000000000000000000000006D
:100D1B00759A5075D7E075D6FE438E10438E04C27C
:020D2B000322A1
:060CE1008B468A4789489A
:100CE700E4FFEFC39D50182003FDD203AB46AA478C
:0F0CF700A9488F827583001206BAF59B0F80E320
:010D060022CA
:1009AE00534D53454E443D2200222C002C22002252
:1009BE000D007573722E636E2341542B4353510DEC
:1009CE00007573722E636E230D0A2B4353513A003A
:1009DE007573722E636E230D0A4F4B0D0A00736DE5
:1009EE0073656E640D0A000D0A534D53454E442037
:1009FE004F4B0D0A00736D73206F6B0D0A0052651D
:100A0E00626F6F74204F4B007265626F6F74206F50
:0A0A1E006B0D0A00535752535400A9
:10058E0014227573722E636E2341542B00000000EB
:0C059E00000000000000013600012100F8
:03005C00020CE1B2
:100832008B3E8A3F89408D4178A07C007D017B0000
:100842007A0079227E007F0A12067B75360A74A02E
:100852002536F9E43400A801FC7D017BFF7A097991
:10086200AE7E007F0812067B74082536F53624A07A
:10087200F9E43400A801FC7D01AB3EAA3FA9407E09
:10088200007F0B12067B740B2536F53624A0F9E4A3
:100892003400A801FC7D017BFF7A0979B77E007FD5
:1008A2000212067B0536053674A02536F582E4343D
:1008B20000F583E541F0053674A02536F9E43400ED
:1008C200A801FC7D017BFF7A0979BA7E007F0212C2
:1008D200067B05360536AF457E0074A02536F9E461
:1008E2003400A801FC7D01AB42AA43A94412067B55
:1008F200E5452536F53624A0F9E43400A801FC7D4F
:10090200017BFF7A0979BD7E007F0212067B0536E4
:1009120005367B017A0079A0AD3612005CAF362233
:0E0D2D007BFF7A0979C07D0E120CE1AF3622F1
:10071F008D3C8B398A3A893B7540FF75410975428B
:10072F00CF75430075440E120B12EF703FAB39AA11
:10073F003AA93B9000101206BAB42C1A90000E1270
:10074F0006BA24E275F00AA4FF90000F1206BA242D
:10075F00E22FF521801390000F1206BAB42C0A90E5
:10076F00000E1206BA24E2F5217F01227540FF75B3
:10077F0041097542DE75430075440CAB39AA3AA99D
:10078F003B120B12EF700E7BFF7A0979EC7D08128A
:10079F000CBB7F02227540FF7541097542F5754309
:1007AF000075440DAB39AA3AA93B120B12EF700E2C
:1007BF007BFF7A0A79037D08120CBB7F04227540F8
:1007CF00FF75410A75420C754300754409AB39AA90
:1007DF003AA93B120B12EF700E7BFF7A0A79167D46
:1007EF000B120CBB7F0022AB39AA3AA93B1206A110
:1007FF007010E92401F9E43AFAE53C14FD12071FE1
:10080F00801E7540FF75410A75422275430075447D
:10081F0005AB39AA3AA93B120B12EF700375C7202B
:03082F007FFF2226
:03000000020922D0
:0C092200787FE4F6D8FD7581DF020969DA
:1005AB00E709F608DFFA8046E709F208DFFA803E32
:1005BB0088828C83E709F0A3DFFA8032E309F6081F
:1005CB00DFFA8078E309F208DFFA807088828C8387
:1005DB00E309F0A3DFFA806489828A83E0A3F6083B
:1005EB00DFFA805889828A83E0A3F208DFFA804C15
:1005FB0080D280FA80C680D4806980F280338010EC
:10060B0080A680EA809A80A880DA80E280CA803354
:10061B0089828A83ECFAE493A3C8C582C8CCC583CC
:10062B00CCF0A3C8C582C8CCC583CCDFE9DEE7809C
:10063B000D89828A83E493A3F608DFF9ECFAA9F01B
:10064B00EDFB2289828A83ECFAE0A3C8C582C8CC71
:10065B00C583CCF0A3C8C582C8CCC583CCDFEADE8A
:10066B00E880DB89828A83E493A3F208DFF980CCEC
:10067B0088F0EF60010E4E60C388F0ED2402B404E5
:10068B000050B9F582EB2402B4040050AF2323458C
:06069B0082239005FB73B1
:1006A100BB010689828A83E0225002E722BBFE0257
:0906B100E32289828A83E493228A
:1006BA00BB010CE58229F582E5833AF583E02250F5
:1006CA0006E92582F8E622BBFE06E92582F8E2223F
:0D06DA00E58229F582E5833AF583E4932259
:1006E700F8BB010DE58229F582E5833AF583E8F049
:1006F700225006E92582C8F622BBFE05E92582C8F5
:02070700F222DC
:10070900EB9FF5F0EA9E42F0E99D42F0EC6480C867
:0607190064809845F02207
:100B12008B3D8A3E893FAB40AA41A9421206A1FE03
:100B2200AB3DAA3EA93F1206A1FF6E702BEF600DEE
:100B3200E54415447002154314454370037F0022B7
:100B42007401253FF53FE4353EF53E74012542F53B
:100B520042E43541F54180BEAB3DAA3EA93F1206B3
:100B6200A1FDD3EE6480F8ED64809840037F0122FA
:0F0B7200AB40AA41A9421206A1FFC3ED9FFF228B
:10092E00020A28E493A3F8E493A34003F68001F2AD
:10093E0008DFF48029E493A3F85407240CC8C333CA
:10094E00C4540F4420C8834004F456800146F6DF99
:10095E00E4800B010204081020408090040FE47E16
:10096E00019360BCA3FF543F30E509541FFEE4938E
:10097E00A360010ECF54C025E060A840B8E493A355
:10098E00FAE493A3F8E493A3C8C582C8CAC583CA80
:10099E00F0A3C8C582C8CAC583CADFE9DEE780BE38
:0105AA000050
:00000001FF
