:0D0EF500E4F5C7F5C5F5C675C380F5C42248
:1000260075C78375C5018FC4EEFF8FC375C65A7534
:08003600C6A500AFC2120EF5D1
:01003E00229F
:1000030075C78375C5028FC4EEFF8FC38DC275C6D6
:080013005A75C6A500020EF5A6
:1000460075C78375C5038FC4EEFF8FC375C65A7512
:06005600C6A500020EF534
:0D051100023D0000013A05013C00013B00E5
:0A0F02007E6C7D91DDFEDEFCDFF663
:010F0C0022C2
:03003F00C28F224B
:03001B00020C686C
:100C6800C0E0C0F0C083C082C0D075D008C28F0574
:100C78003EE53EAE3D7002053D14FFE4FCFDFB7A07
:100C880096F9F8C312098E500E753D00753E00E5C1
:100C98003A94004002153AE51ED394004011200210
:100CA8000E051FE51FD3948C4005751F00D202E581
:100CB80043D39400401120050E0544E544D3948C99
:100CC8004005754400D205D0D0D082D083D0F0D072
:020CD800E03208
:03002300020E4882
:100E4800C0E0C083C082C0D075D008309904C29970
:100E5800C20030981DC298751F00E51EC394A050AB
:100E680011AF1E051E74002FF582E43400F583E5EA
:0B0E780099F0D0D0D082D083D0E032BF
:03004300020E07A3
:100E0700C0E0C083C082C0D075D008E59A30E10544
:100E1700539AFDC203E59A30E01E539AFE754400CB
:100E2700E543C394A05011AF43054374A02FF58247
:100E3700E43400F583E59BF0D0D0D082D083D0E0B6
:010E47003278
:0300630002001E7A
:04001E0053EFFE326C
:100A9500E4F510F511F592F59112003F120ECFD243
:100AA500AC120EE375AF01D2ABD2AF75C125E4FF31
:100AB500FE1200268F41C2B2E53A704A200407C2F1
:100AC500967522018005E4F522D296E53FD3940080
:100AD500402C153FE53F75F00BA42440F974013512
:100AE500F0FA7B01C0031B8B167517007518458539
:100AF5004219D0037D331209A4753A0A8008120FF2
:100B05000DD204753A1E3002227F01120F027B01BD
:100B15007A007900AD1E120066AD077B017A007977
:100B250000120E83E4F51EF51FC20230058A7B0113
:100B35007A0079A0AD431206B0E4F543F544C20549
:050B4500C204020ABD1C
:0C051E00014200014103014000013F00C8
:060066008B128A138914BD
:10006C00E4F51512092664AF600302050E90000139
:10007C0012093F644C600302050E90000212093F06
:10008C0064ED600302050E90000312093F64F860F2
:10009C000302050E90000412093F6541600D9000AB
:1000AC000512093F6404600302050E120D49EF604E
:1000BC000302050EAB12AA13A91490000512093FF6
:1000CC0024FE700302018914700302018C14700366
:1000DC0002020714700302022024FE700302036F55
:1000EC002406600302050E90000612093F6003020D
:1000FC00050E90000712093F600302050E900008E0
:10010C0012093F600302050E900005740212096C7F
:10011C00900006E412096C900007740B12096C90A5
:10012C000008E412096C900009E412096C90000AB2
:10013C00E412096C90000B740A12096C90000CE428
:10014C0012096C90000D740612096C90000EE412EA
:10015C00096C90000F740212096C9000107421123B
:10016C00096C900011740412096C900012E41209CD
:10017C006C900013E412096C7D1402050B7FF222C3
:10018C00AB12AA13A91490000612093F60030205D2
:10019C000E90000712093F6401600302050E9000E7
:1001AC000812093F600302050E90000912093FF581
:1001BC0041FDE4FFFE120003AB12AA13A914900038
:1001CC0005740412096C900006E412096C90000787
:1001DC00740212096C900008E412096CE4FFFE1220
:1001EC000026AB12AA13A914900009EF12096C9007
:1001FC00000AE412096C7D0B02050BAB12AA13A9C1
:10020C001490000412093FFF6403600302050E8F73
:10021C00417FF422AB12AA13A91490000612093FD5
:10022C00600302050E90000912093FFFD3940140B0
:10023C0068EF253FF53FE4F517AB12AA13A914900C
:10024C00000912093FFFE517C39F40030202E1E4D6
:10025C00F516E51775F00BA4240BFFE435F0FEE55D
:10026C00162FF582E43EF583AB12AA13A9141209DA
:10027C003FFFE51775F00BA42440F582E43401F53B
:10028C0083E5822516F582E43583F583EFF00516B8
:10029C00E516B40BBD051780A0053FE4F516740BED
:1002AC002516F582E433F583AB12AA13A9141209AF
:1002BC003FFFE53F75F00BA42435F582E43401F5DE
:1002CC0083E5822516F582E43583F583EFF0051678
:1002DC00E516B40BC9AB12AA13A9149000091209A4
:1002EC003F75F00BA4240BF582E435F0F58312096D
:1002FC003FF542E4F516E516C39542502FAB12AA12
:10030C0013A91490000912093F75F00BA4240DFFDA
:10031C00E435F0FEE5162FF582E43EF58312093F35
:10032C00FF74452516F8A607051680CAAB12AA134A
:10033C00A914900005740612096C900006E41209C9
:10034C006C900007740212096C900008E412096C9E
:10035C00900009E412096C90000AE412096C7D0B00
:10036C0002050BAB12AA13A91490000612093F60E8
:10037C000302050E90000712093F600302050E9060
:10038C00000812093F600302050E90000574081264
:10039C00096C900006E412096CE5407063AB12AA7C
:1003AC0013A914900007740712096C900008E4124A
:1003BC00096C900009740112096C90000AE412098E
:1003CC006C90000B740112096C90000CE52312095F
:1003DC006C90000DE52212096C90000EE5241209B8
:1003EC006CE521D3940A40047F0180027F00AB129C
:1003FC00AA13A91490000FEF12096C7D1002050BC3
:10040C00AB12AA13A914900007741B12096C90006C
:10041C0008E412096C900009E412096C90000AE4DB
:10042C0012096C90000B740112096C90000CE523FE
:10043C0012096C90000DE52212096C90000EE52457
:10044C0012096CE521D3940A40047F0180027F00DD
:10045C00AB12AA13A91490000FEF12096C900010A4
:10046C00740212096C900011E412096C9000127461
:10047C003112096C900013743812096C90001474CA
:10048C003212096C900015743712096C90001674B6
:10049C003312096C900017743012096C90001874A8
:1004AC003612096C900019743112096C90001A7490
:1004BC003612096C90001B743612096C90001C7477
:1004CC003612096C90001D740512096C90001EE424
:1004DC0012096C90001F746812096C9000207465EE
:1004EC0012096C900021746C12096C900022746CCF
:1004FC0012096C900023746F12096C15407D240254
:04050C000DB37F00AC
:0105100022C8
:080DB3008B188A19891A8D1BA7
:100DBB00E4FFF51CF51DEFC3951B501AAB18AA19D0
:100DCB00A91A8F8275830012093F251DF51DE43585
:100DDB001CF51C0F80E0AB18AA19A91A851B82758C
:100DEB008300E51D12096CE51CFFE51BF58275837D
:0B0DFB0000A3EF12096CE51B2402FFAF
:010E060022C9
:060D49008B188A19891ABB
:100D4F00E4FFF51BF51CED24FEFEEFC39E501AAB1E
:100D5F0018AA19A91A8F8275830012093F251CF54D
:100D6F001CE4351BF51B0F80DDED7E0024FFF582A3
:100D7F00EE34FFF583AB18AA19A91A12093FFE7CAE
:100D8F000074FE2DF582EC34FFF58312093F240029
:100D9F00FFEC3EFEC3E51C9FFFE51B9E4F7002FF5D
:030DAF00227FFFA1
:010DB200221E
:10052A00C100C102C101011E00011F0060A000003C
:10053A0000000000000000000000000000000000B1
:10054A0000000000000000000000000000000000A1
:10055A000000000000000000000000000000000091
:10056A000000000000000000000000000000000081
:10057A000000000000000000000000000000000071
:10058A000000000000000000000000000000000061
:10059A000000000000000000000000000000000051
:1005AA000000000000000000000000000000000041
:1005BA000000000000000000000000000000000031
:1005CA000000000000000000000000000000000021
:100ECF00E4F5A2759850758BE0758DFED28E438E2A
:040EDF0040C20022EB
:060E83008B128A13891492
:100E8900E4FFEFC39D50182000FDD200AB12AA1356
:0F0E9900A9148F8275830012093FF5990F80E32A
:010EA8002227
:1005DA00C103C105C10401430001440060A000A099
:1005EA000000000000000000000000000000000001
:1005FA0000000000000000000000000000000000F1
:10060A0000000000000000000000000000000000E0
:10061A0000000000000000000000000000000000D0
:10062A0000000000000000000000000000000000C0
:10063A0000000000000000000000000000000000B0
:10064A0000000000000000000000000000000000A0
:10065A000000000000000000000000000000000090
:10066A000000000000000000000000000000000080
:10067A000000000000000000000000000000000070
:100EE300759A5075D7E075D6FE438E10438E04C2B3
:020EF3000322D8
:060EA9008B1A8A1B891C54
:100EAF00E4FFEFC39D50182003FDD203AB1AAA1B1A
:0F0EBF00A91C8F8275830012093FF59B0F80E3FA
:010ECE002201
:100B4A00534D53454E443D2200222C002C220022B4
:100B5A000D007573722E636E2341542B4353510D4E
:100B6A00007573722E636E230D0A2B4353513A009C
:100B7A007573722E636E230D0A4F4B0D0A000D0A10
:100B8A00534D53454E44204F4B0D0A005265626F38
:100B9A006F74204F4B005357525354000D0A2B5376
:100BAA004D535243563A0052656769737465722011
:100BBA004661696C6564210D0A4D6F64756C652028
:100BCA0077696C6C20726573746172742E2E2E0DA7
:020BDA000A000F
:10068A0014257573722E636E2341542B00000000EB
:10069A0000000000000001390001210001230101CE
:0506AA00240101220102
:03005C00020EA9E8
:1009A4008B128A1389148D1578A07C007D017B003D
:1009B4007A0079257E007F0A12090075390A74A02D
:1009C4002539F9E43400A801FC7D017BFF7A0B7919
:1009D4004A7E007F0812090074082539F53924A0DD
:1009E400F9E43400A801FC7D01AB12AA13A9147E1A
:1009F400007F0B120900740B2539F53924A0F9E4A2
:100A04003400A801FC7D017BFF7A0B79537E007FC3
:100A1400021209000539053974A02539F582E43438
:100A240000F583E515F0053974A02539F9E434009F
:100A3400A801FC7D017BFF7A0B79567E007F0212B0
:100A4400090005390539AF197E0074A02539F9E488
:100A54003400A801FC7D01AB16AA17A918120900DD
:100A6400E5192539F53924A0F9E43400A801FC7D01
:100A7400017BFF7A0B79597E007F02120900053948
:100A840005397B017A0079A0AD3912005CE4F524C4
:010A9400223F
:0B0F0D007BFF7A0B795C7D0E02005C1C
:1006B0008D158B128A1389147519FF751A0B751B0A
:1006C0006B751C00751D0E120CDAEF703FAB12AA91
:1006D00013A91490001112093FB42C1A90000F12A4
:1006E000093F24D075F00AA4FF90001012093F249E
:1006F000D02FF521801390001012093FB42C0A90DE
:10070000000F12093F24D0F5217F6B227519FF7568
:100710001A0B751B7A751C00751D0CAB12AA13A958
:1007200014120CDAEF7017752301E53FD3940040E3
:100730000AE53AD394014003E4F53A7F7A22751929
:10074000FF751A0B751B88751C00751D0DAB12AA61
:1007500013A914120CDAEF70067524017F88227534
:1007600019FF751A0B751B96751C00751D09AB12C8
:10077000AA13A914120CDAEF70067522017F9622D3
:10078000AB12AA13A9141209267011E92401F9E485
:100790003AFAE51514FD1206B002082D7519FF7519
:1007A0001A0B751BA0751C00751D05AB12AA13A9A9
:1007B00014120CDAEF700575C72080717519FF757A
:1007C0001A0B751BA6751C00751D0AAB12AA13A97E
:1007D00014120CDAEF70390540AB12E514240DF950
:1007E000E43513FA78407C017D017E007F0B12090D
:1007F00000E51524CFFFE434FFFEAB12E514242EF0
:10080000F9E43513FA78457C007D00120900801D5B
:100810007519FF751A0B751BB1751C00751D2AAB78
:1008200012AA13A914120CDAEF7002F5237FFF222B
:03000000020BDC14
:0C0BDC00787FE4F6D8FD7581D0020C2370
:10083000E709F608DFFA8046E709F208DFFA803EAA
:1008400088828C83E709F0A3DFFA8032E309F60897
:10085000DFFA8078E309F208DFFA807088828C83FF
:10086000E309F0A3DFFA806489828A83E0A3F608B3
:10087000DFFA805889828A83E0A3F208DFFA804C8D
:1008800080D280FA80C680D4806980F28033801064
:1008900080A680EA809A80A880DA80E280CA8033CD
:1008A00089828A83ECFAE493A3C8C582C8CCC58345
:1008B000CCF0A3C8C582C8CCC583CCDFE9DEE78015
:1008C0000D89828A83E493A3F608DFF9ECFAA9F094
:1008D000EDFB2289828A83ECFAE0A3C8C582C8CCEA
:1008E000C583CCF0A3C8C582C8CCC583CCDFEADE03
:1008F000E880DB89828A83E493A3F208DFF980CC65
:1009000088F0EF60010E4E60C388F0ED2402B4045D
:100910000050B9F582EB2402B4040050AF23234504
:06092000822390088073A1
:10092600BB010689828A83E0225002E722BBFE02CF
:09093600E32289828A83E4932202
:10093F00BB010CE58229F582E5833AF583E022506D
:10094F0006E92582F8E622BBFE06E92582F8E222B7
:0D095F00E58229F582E5833AF583E49322D1
:10096C00F8BB010DE58229F582E5833AF583E8F0C1
:10097C00225006E92582C8F622BBFE05E92582C86D
:02098C00F22255
:10098E00EB9FF5F0EA9E42F0E99D42F0EC6480C8E0
:06099E0064809845F02280
:100CDA008B168A178918AB19AA1AA91B120926FE9C
:100CEA00AB16AA17A918120926FF6E702BEF600D12
:100CFA00E51D151D7002151C14451C70037F00228A
:100D0A0074012518F518E43517F5177401251BF534
:100D1A001BE4351AF51A80BEAB16AA17A9181209D0
:100D2A0026FDD3EE6480F8ED64809840037F0122AB
:0F0D3A00AB19AA1AA91B120926FFC3ED9FFF22AE
:100BE800020A95E493A3F8E493A34003F68001F284
:100BF80008DFF48029E493A3F85407240CC8C3330E
:100C0800C4540F4420C8834004F456800146F6DFDC
:100C1800E4800B0102040810204080900511E47E56
:100C2800019360BCA3FF543F30E509541FFEE493D1
:100C3800A360010ECF54C025E060A840B8E493A398
:100C4800FAE493A3F8E493A3C8C582C8CAC583CAC3
:100C5800F0A3C8C582C8CAC583CADFE9DEE780BE7B
:0106AF00004A
:00000001FF
